S0170000536D617274486F6D652852544F53292E73726563E4
S11300000C942A000C9447000C9447000C9447006D
S11300100C9447000C9447000C9447000C946E0415
S11300200C9447000C9447000C94DB0E0C9447008E
S11300300C9447000C9447000C9447000C94470020
S11300400C9447000C9447000C9447000C94470010
S11300500C94470011241FBECFE5D8E0DEBFCDBF0E
S113006011E0A0E6B0E0E0EDF0E202C005900D92F0
S1130070A633B107D9F725E0A6E3B1E001C01D928C
S1130080A43AB207E1F70E9449000C9466100C945C
S113009000000E943F0180E090E00895CF93DF9339
S11300A000D0CDB7DEB7198282E08A830E940D0F9B
S11300B0898320E044E650E0BE016F5F7F4F80916A
S11300C0A0059091A1050E94BC0581E00E94000D4D
S11300D08981813449F460E070E082E090E00E941C
S11300E09E0D81E08A8303C00E94980C1A8220E04E
S11300F044E650E0BE016E5F7F4F80919E05909173
S11301009F050E94BC0588E592E00E94920AE0CF18
S113011060E080E00E944C0D82E690E00E94390D80
S113012084EF91E00E94920AF3CFCF93DF931F9262
S1130130CDB7DEB7198280E00E94B20D96958795FF
S1130140898320E044E650E0BE016F5F7F4F8091D9
S11301509C0590919D050E94BC0588E592E00E9453
S1130160920AE9CFCF93DF9300D0CDB7DEB71982DF
S113017082E08A8380913601909137010E94E508DC
S113018020E044E650E0BE016F5F7F4F80919C0504
S113019090919D050E944E0620E044E650E0BE0189
S11301A06E5F7F4F80919E0590919F050E944E0641
S11301B08A818130D9F460E080E00E944C0D82E7AE
S11301C090E00E94390D61E080E00E944C0D81E8CE
S11301D090E00E94390D698170E080E090E00E9417
S11301E0540D89E890E00E94390D09C0811107C0BF
S11301F060E00E944C0D8BE890E00E94390D88E588
S113020092E00E94920ABCCFCF93DF9300D0CDB787
S1130210DEB782E089831A8220E044E650E0BE0122
S11302206F5F7F4F80919E0590919F050E944E06BF
S113023020E044E650E0BE016E5F7F4F80919C0554
S113024090919D050E944E068981813099F48A819E
S11302508E3118F48AE00E94B90E8A818E518A3058
S113026018F482E30E94B90E8A81823318F083E67F
S11302700E94B90E88E592E00E94920ACDCFEF92D7
S1130280FF920F936FEF80E00E94A90E40E060E0C0
S113029080E00E94C30D40E060E083E00E94C30D53
S11302A041E063E081E00E94C30D41E060E082E050
S11302B00E94C30D0E941A0D0E94A20D0E94020FFB
S11302C00E94830C0F2EF6E3EF2EF1E0FF2EF02DAB
S11302D005E020E030E040E550E06CEA70E088E8BA
S11302E090E00E949108E12CF12C04E020E030E041
S11302F040E550E060EC70E08EE490E00E949108EC
S113030003E020E030E040E550E06EEE70E085E987
S113031090E00E94910820E030E040E550E06BEF6F
S113032070E082EB90E00E94910801E020E030E070
S113033040E550E06FE071E084E091E00E949108B4
S113034040E061E081E00E9492059093A1058093D2
S1130350A00540E061E081E00E94920590939D0534
S113036080939C0540E061E081E00E9492059093B7
S11303709F0580939E050E9436090F91FF90EF9090
S11303800895EDE3F1E082E491E0918380831382A8
S11303901282E9E3F1E087EE93E093838283118292
S11303A01082A1E4B1E014969C938E931397129655
S11303B0FC93EE93119708950F931F93CF93DF93BC
S11303C0EC010E94600980913801811105C00E94EE
S11303D0C10181E080933801209709F02496CE0171
S11303E00197863E934008F056C0E0913D01F0919C
S11303F03E01ADE3B1E002C0DF01FC0182819381E3
S11304008C179D0720F4808191810097A9F781E0E2
S1130410E933F80709F442C00D911C9111970C5F60
S11304201F4F808191818D939C93828193818C1B3A
S11304309D0B8930910510F1AF014C0F5D1FDA015E
S113044013969C938E931297D383C28312962D9105
S11304503C9113976DE371E001C0BD01EB01A881EC
S1130460B98112968D919C91139782179307A8F3E3
S1130470EA01B983A883DB014D935C932281338124
S11304808091600090916100821B930B90936100B6
S11304908093600005C000E010E002C000E010E0BE
S11304A00E94200AC801DF91CF911F910F910895F6
S11304B00F931F93CF93DF93009741F1EC018C01CD
S11304C0045011090E946009F80142815381ADE38F
S11304D0B1E001C0DF01ED91FC91119722813381DC
S11304E024173507B8F32497F983E8830D931C93F5
S11304F08A819B812091600030916100820F931F5B
S113050090936100809360000E94200ADF91CF9154
S11305101F910F910895FC010396928381832FEF1D
S11305203FEF348323839683858390878783108268
S11305300895FC01118610860895CF93DF939C01E2
S1130540FB01DC011196CD91DC911297D383C28318
S11305508C819D81958384838C819D81DC0113969C
S11305607C936E9312977D836C8331872087F90186
S113057080818F5F8083DF91CF910895CF93DF9344
S1130580EB01488159814F3F2FEF520721F4FC01C1
S1130590A781B0850DC0DC01139601C0DF0112965E
S11305A0ED91FC9113972081318142175307B0F7E5
S11305B01296ED91FC911397FB83EA83D583C48350
S11305C0BD83AC831396DC93CE9312979987888767
S11305D0FC0120812F5F2083DF91CF910895CF9379
S11305E0DF93FC01A085B185C281D381848195818B
S11305F09D838C83C481D581828193819B838A83EB
S113060011968D919C911297E817F90731F4848122
S1130610958112969C938E931197118610868C91D6
S113062081508C93DF91CF9108951BBC89EF8ABDD3
S11306308BE08EBD89B7806189BF089531E1FC01EB
S11306403083319722E220833197A3E3A08331974B
S113065060833197708331971082319760E86083AB
S113066031971082319762E06083319763E0608351
S1130670319764E06083319765E06083319766E089
S11306806083319767E06083319768E060833197D6
S113069069E06083319760E16083319730833197FB
S11306A032E13083319733E13083319734E1308361
S11306B0319735E13083319736E13083319737E133
S11306C03083319738E13083319739E13083319782
S11306D030E23083319731E2308331972083319790
S11306E023E220833197408331975083319726E268
S11306F02083319727E22083319728E220833197A2
S113070029E22083319720E32083319721E320835A
S1130710869708950E941503A0919605B0919705B8
S1130720CD91CDBFDD91DEBFFF91EF91DF91CF91F0
S1130730BF91AF919F918F917F916F915F914F91F5
S11307403F912F911F910F91FF90EF90DF90CF90E9
S1130750BF90AF909F908F907F906F905F904F90DD
S11307603F902F901F900F900FBE0F90089581E03F
S113077008950F920FB6F8940F921F9211242F929E
S11307803F924F925F926F927F928F929F92AF921D
S1130790BF92CF92DF92EF92FF920F931F932F930A
S11307A03F934F935F936F937F938F939F93AF93F5
S11307B0BF93CF93DF93EF93FF93A0919605B091EE
S11307C097050DB60D920EB60D920E94D90AA0910E
S11307D09605B0919705CD91CDBFDD91DEBFFF9118
S11307E0EF91DF91CF91BF91AF919F918F917F91C5
S11307F06F915F914F913F912F911F910F91FF90B6
S1130800EF90DF90CF90BF90AF909F908F907F90AC
S11308106F905F904F903F902F901F900F900FBE5E
S11308200F9008950F920FB6F8940F921F9211240F
S11308302F923F924F925F926F927F928F929F92EC
S1130840AF92BF92CF92DF92EF92FF920F931F93DA
S11308502F933F934F935F936F937F938F939F93C4
S1130860AF93BF93CF93DF93EF93FF93A09196053C
S1130870B09197050DB60D920EB60D920E946609C1
S113088081110E94D90AA0919605B0919705CD9146
S1130890CDBFDD91DEBFFF91EF91DF91CF91BF918D
S11308A0AF919F918F917F916F915F914F913F9104
S11308B02F911F910F91FF90EF90DF90CF90BF90F9
S11308C0AF909F908F907F906F905F904F903F90EC
S11308D02F901F900F900FBE0F9008950E94120446
S11308E018950FB6F8940F92FC01828D811102C005
S11308F081E001C080E00F900FBE08950FB6F89418
S11309000F92FC01228D838D281302C081E001C067
S113091080E00F900FBE08950F931F93CF93DF9342
S1130920EC01042F1A8D4C8D41110CC088819981E2
S1130930892B09F042C08A819B810E94310C1B8261
S11309401A8242C0011117C050E08C819D810E941F
S11309505D102C8D8C819D81820F911D9D838C83D4
S11309602A813B818217930750F1888199819D8365
S11309708C8380E029C050E08E819F810E945D10AD
S11309808C8D90E09195819591092E813F81280F5E
S1130990391F3F832E83488159812417350730F44A
S11309A02A813B81820F931F9F838E83023049F4F7
S11309B0112349F0115080E007C080E005C080E0B9
S11309C003C080E001C080E01F5F1A8FDF91CF91E8
S11309D01F910F910895FC01448D4423A9F050E028
S11309E026813781240F351F3783268382819381A3
S11309F02817390720F08081918197838683CB0162
S1130A00668177810E945D1008951F93CF93DF93D1
S1130A10EC010FB6F8940F921E8D0BC089898823C0
S1130A2051F0CE0141960E943F0B81110E94CB0BE5
S1130A30115011169CF38FEF8E8F0F900FBE0FB6CF
S1130A40F8940F921D8D0BC08885882351F0CE0138
S1130A5008960E943F0B81110E94CB0B1150111676
S1130A609CF38FEF8D8F0F900FBEDF91CF911F916D
S1130A700895CF93DF93EC010FB6F8940F92E881B9
S1130A80F9818B8D90E02C8D30E0829FA001839FB3
S1130A90500D929F500D11244E0F5F1F5B834A83AC
S1130AA01A8EFD83EC830197289FA001299F500D86
S1130AB0389F500D1124CF01840F951F9F838E837F
S1130AC08FEF8D8F8E8F61110CC08885882389F0FC
S1130AD0CE0108960E943F0B882359F00E94B90367
S1130AE008C0CE0108960E948B02CE0141960E9456
S1130AF08B020F900FBE81E0DF91CF9108950F9389
S1130B001F93F801611103C01183008302C0518354
S1130B104083838F648F61E0CF010E9439051F9168
S1130B200F910895DF92EF92FF920F931F93CF934B
S1130B30DF93E82EF62ED42E662321F0869FC00183
S1130B40112402C080E090E04F960E94DC01EC0189
S1130B50009749F08C012D2DAC01415E5F4F6F2D44
S1130B608E2D0E947F05CE01DF91CF911F910F91B1
S1130B70FF90EF90DF900895CF92DF92EF92FF9273
S1130B800F931F93CF93DF9300D000D01F92CDB764
S1130B90DEB78C017B015D834C83C22ED12C0FB652
S1130BA0F8940F92F801928D838D981718F0F2E063
S1130BB0CF1219C04C2DB701C8010E948C04F80152
S1130BC09189992349F0C80141960E943F0B8823DB
S1130BD031F00E94B90303C081110E94B9030F9040
S1130BE00FBE81E04DC08C819D81892B21F40F9033
S1130BF00FBE80E045C0D11006C0CE0101960E9410
S1130C00870BDD24D3940F900FBE0E9460090FB6AA
S1130C10F8940F92F801858D8F3F09F4158EF80131
S1130C20868D8F3F09F4168E0F900FBEBE016C5F48
S1130C307F4FCE0101960E94920B81111BC0C80107
S1130C400E947E04882381F06C817D81C80108960E
S1130C500E942D0BC8010E9405050E94200A8111E3
S1130C609ECF0E94B9039BCFC8010E9405050E9434
S1130C70200A95CFC8010E9405050E94200A80E041
S1130C800F900F900F900F900F90DF91CF911F91C5
S1130C900F91FF90EF90DF90CF9008958F929F92E5
S1130CA0BF92CF92DF92EF92FF920F931F93CF9355
S1130CB0DF9300D000D01F92CDB7DEB78C016B015B
S1130CC05D834C83B22EE12C0FB6F8940F92F80199
S1130CD0F28CFF2091F186809780B601C8010E94B2
S1130CE0EB04B11019C0FA94F801F28E808191815D
S1130CF0892B29F40E94710CF80193838283F801F3
S1130D0080858823B1F0C80108960E943F0B882390
S1130D1081F00E94B9030DC0F8019782868281890F
S1130D20882339F0C80141960E943F0B81110E942B
S1130D30B9030F900FBE81E061C08C819D81892B26
S1130D4021F40F900FBE80E059C0E11006C0CE011F
S1130D5001960E94870BEE24E3940F900FBE0E942D
S1130D6060090FB6F8940F92F801858D8F3F09F44E
S1130D70158EF801868D8F3F09F4168E0F900FBEE5
S1130D80BE016C5F7F4FCE0101960E94920B8111D0
S1130D9029C0C8010E9471048823F1F0F801808100
S1130DA09181892B49F40FB6F8940F928281938133
S1130DB00E94CF0B0F900FBE6C817D81C8014196BC
S1130DC00E942D0BC8010E9405050E94200A811172
S1130DD07BCF0E94B90378CFC8010E9405050E9409
S1130DE0200A72CFC8010E9405050E94200AC8018A
S1130DF00E947104882309F467CF80E00F900F905C
S1130E000F900F900F90DF91CF911F910F91FF9052
S1130E10EF90DF90CF90BF909F908F900895E091D6
S1130E205505F09156058081811107C08FEF9FEF22
S1130E3090932D0580932C050895E0915505F0912C
S1130E4056050580F681E02D0680F781E02D82812C
S1130E50938190932D0580932C050895CF93DF9370
S1130E60EC018F89988D0E945802CE010E9458028D
S1130E70DF91CF9108956F927F928F929F92AF925C
S1130E80BF92CF92DF92EF920F931F93CF93DF9392
S1130E90CDB7DEB74C01F5018789908D215031091A
S1130EA03C01620E731E20E00FC0822F90E0FB0114
S1130EB0E80FF91F3081D501A80FB91F59963C934B
S1130EC08081882319F02F5F283078F3F50110A270
S1130ED0F4E0FE1518F46894EE24E2F8F501E68ACD
S1130EE0E1A212A2C50102960E949902C5010C96C4
S1130EF00E949902F501B186A08685E090E08E19E2
S1130F00910995878487B38AA28A13A214A215A291
S1130F1016A217A2A801B401C3010E941E03F50181
S1130F2091838083C114D10419F0F601B182A082A7
S1130F30DF91CF911F910F91EF90DF90CF90BF90F1
S1130F40AF909F908F907F906F900895CF93C0E063
S1130F5010C08C2F90E09C01220F331F220F331FEF
S1130F60220F331F820F931F87599A4F0E948B02BF
S1130F70CF5FC53070F380E695E00E948B0287E571
S1130F8095E00E948B028AE495E00E948B0281E442
S1130F9095E00E948B0287E395E00E948B0280E635
S1130FA095E0909356058093550587E595E09093D9
S1130FB0540580935305CF910895CF93DF93EC01AB
S1130FC00FB6F8940F92809136058F5F80933605A3
S1130FD08091960590919705892B59F4D0939705A4
S1130FE0C093960580913605813099F40E94A60736
S1130FF010C08091320581110CC0E0919605F091EA
S1131000970596898E89891720F0D0939705C09308
S1131010960580912E058F5F80932E058E89909181
S11310203305981710F48093330590E09C01220F48
S1131030331F220F331F220F331F820F931FBE0152
S11310406E5F7F4F87599A4F0E949D020F900FBE8B
S113105080913205882351F0E0919605F09197052F
S113106096898E89981710F40E94B903DF91CF9165
S11310700895FF920F931F93CF93DF93EC01F62E05
S1131080009134051091350580919605909197054E
S113109002960E94EF02CF3F8FEFD80769F4FF203A
S11310A059F060919605709197056E5F7F4F87E3C5
S11310B095E00E949D022FC0C00FD11FE0919605BC
S11310C0F0919705D383C283C017D10768F4609168
S11310D096057091970580915305909154056E5F24
S11310E07F4F0E94BE0217C06091960570919705CC
S11310F080915505909156056E5F7F4F0E94BE0208
S113110080912C0590912D05C817D90720F4D09310
S11311102D05C0932C05DF91CF911F910F91FF9066
S113112008952F923F924F925F926F927F928F9287
S11311309F92AF92BF92CF92DF92EF92FF920F9362
S11311401F93CF93DF933C011B015A012901CA016C
S11311500E94DC016C01892B71F088E290E00E940E
S1131160DC01EC01892B19F0D88ECF8A06C0C601A8
S11311700E94580202C0C0E0D0E0209791F095018F
S113118040E050E0812C912C5E016701E02E820149
S1131190B101C3010E943B07CE010E94DD0781E03B
S11311A001C08FEFDF91CF911F910F91FF90EF90CE
S11311B0DF90CF90BF90AF909F908F907F906F9073
S11311C05F904F903F902F9008950F931F93CF936C
S11311D0DF93EC010FB6F8940F92892B21F4C091A0
S11311E09605D09197058E010E5F1F4FC8010E948E
S11311F0EF028C899D89892B21F0CE010C960E94E7
S1131200EF0280912E058F5F80932E0580919605C5
S113121090919705C817D90759F4B80181E495E06E
S11312200E949D02809140058F5F809340050AC013
S113123080913605815080933605CE010E942E0799
S11312400E940F070F900FBE80913205882349F04A
S11312508091960590919705C817D90711F40E94BB
S1131260B903DF91CF911F910F910895EF92FF92EF
S11312700F930F2EFAE2EF2EF5E0FF2EF02D00E093
S113128020E030E040E550E061E371E086ED9AE073
S11312900E949108813081F4F8948FEF9FEF90932E
S11312A02D0580932C0581E080933205109235053D
S11312B0109234050E948A030F91FF90EF900895D5
S11312C0809129058F5F809329050895DF92EF921D
S11312D0FF920F931F93CF93DF9380912905811180
S11312E097C0E0903405F09035058FEFE81AF80ABE
S11312F0F0923505E0923405E114F104B9F48091DB
S1131300550590915605209153053091540530931D
S11313105605209355059093540580935305809169
S11313202F058F5F80932F050E940F0780912C0556
S113133090912D05E816F90628F4D12C53C0DD242C
S1131340D39401C0D12CE0915505F09156058081CC
S1131350811107C08FEF9FEF90932D0580932C058B
S113136041C0E0915505F09156050580F681E02DC8
S1131370C681D7818A819B81E816F90628F4909367
S11313802D0580932C052EC08E010E5F1F4FC801C2
S11313900E94EF028C899D89892B21F0CE010C9645
S11313A00E94EF028E8990913305981710F4809370
S11313B0330590E09C01220F331F220F331F220FAD
S11313C0331F820F931FB80187599A4F0E949D02C1
S11313D09E89E0919605F09197058689981708F003
S11313E0AECFB1CFE0919605F0919705868990E054
S11313F0FC01EE0FFF1FEE0FFF1FEE0FFF1F8E0FFE
S11314009F1FFC01E759FA4F8081823040F409C0E4
S1131410809131058F5F80933105D12C02C0DD248A
S1131420D39480913005882311F0DD24D3948D2D3D
S1131430DF91CF911F910F91FF90EF90DF9008956E
S11314400F931F93CF93DF930FB6F8940F9280916D
S1131450290581508093290580912905811158C05F
S113146080913605811133C056C0E0914F05F0914B
S11314705005C681D781CE010C960E94EF028E01E1
S11314800E5F1F4FC8010E94EF028E8990913305B1
S1131490981710F48093330590E09C01220F331FBA
S11314A0220F331F220F331F820F931FB801875956
S11314B09A4F0E949D029E89E0919605F0919705AE
S11314C08689981730F081E08093300502C0C0E02F
S11314D0D0E080914A058111C8CFCD2B11F00E9434
S11314E00F07C0913105CC2359F00E946609882367
S11314F019F081E080933005C150B9F7109231059D
S113150080913005882331F00E94B90381E003C043
S113151080E001C080E00F900FBEDF91CF911F915A
S11315200F910895CF93DF93EC01892B49F00E942A
S1131530600960E0CE010E9439080E94200A01C0BF
S113154080E0811102C00E94B903DF91CF91089518
S1131550CF93DF9324C00E946009C09141050E948B
S1131560200ACC23E1F00FB6F8940F92E0914605DF
S1131570F0914705C681D781CE0102960E94EF0201
S113158080913605815080933605809140058150C5
S1131590809340050F900FBECE010E942E078091CC
S11315A040058111D8CFDF91CF9108950E94A80AF8
S11315B0FDCF80912905882321F081E080933005B7
S11315C00895109230052091330501C02150822FD7
S11315D090E0FC01EE0FFF1FEE0FFF1FEE0FFF1F49
S11315E0E80FF91FE759FA4F3081332379F3AC013F
S11315F0440F551F440F551F440F551F480F591FC3
S1131600DF010180F281E02D0280F381E02D12964A
S1131610FC93EE93119744595A4FE417F50729F4B4
S113162042815381FD0152834183FC01EE0FFF1F70
S1131630EE0FFF1FEE0FFF1F8E0F9F1FFC01E759D8
S1131640FA4F0180F281E02D86819781909397056E
S113165080939605209333050895CF93DF93EB0190
S11316606091960570919705645F7F4F0E94BE025A
S113167061E0CE010E943908DF91CF9108950F9364
S11316801F93CF93DF93DC011596ED91FC91169790
S1131690C681D7818E01045F1F4FC8010E94EF02EB
S11316A08091290581111CC00A501109C8010E94AA
S11316B0EF028E8990913305981710F480933305C7
S11316C090E09C01220F331F220F331F220F331F80
S11316D0820F931FB80187599A4F0E949D0205C03B
S11316E0B8018AE495E00E949D029E89E0919605E6
S11316F0F09197058689891720F481E0809330055D
S113170001C080E0DF91CF911F910F910895209146
S11317102F05FC0120832091340530913505328357
S1131720218308950FB6F8940F9240913405509197
S11317303505DB012D913C912F3FBFEF3B0719F19C
S1131740DC01FC91E0912F05FE1739F01196ED9123
S1131750FC9112974E175F07C0F4DC011196ED91CE
S1131760FC911297DA01AE1BBF0BA217B30778F4F2
S1131770DB01E41BF50B2E0F3F1F2D933C930E94BE
S1131780870B80E005C080E003C081E001C081E0F8
S11317900F900FBE089581E08093300508950F9354
S11317A01F93CF93DF93FC01892B09F455C026893D
S11317B0A0919605B091970556968C91281708F03C
S11317C04BC084859585992364F0A0919605B091CA
S11317D0970556963C9185E090E0831B9109958787
S11317E084878285938530E0A901440F551F440FF7
S11317F0551F440F551F240F351F27593A4F821781
S1131800930719F58F01EF012296CE010E94EF0292
S1131810E0919605F09197058689F801868B909161
S11318203305981710F48093330590E09C01220F40
S1131830331F220F331F220F331F820F931FBE014A
S113184087599A4F0E949D0207C0A0919605B091B6
S1131850970556968C91868BDF91CF911F910F91AE
S113186008950F931F93CF93DF93FC01892B79F194
S113187082A1815082A3268991A1291751F1811156
S11318802AC0EF018F010E5F1F4FC8010E94EF02B3
S113189089A18E8B25E030E0281B31093D872C87F8
S11318A090913305981710F48093330590E09C01D0
S11318B0220F331F220F331F220F331F820F931F58
S11318C0B80187599A4F0E949D0281E005C080E0CB
S11318D003C080E001C080E0DF91CF911F910F91A0
S11318E008958091960590919705892B39F0E091A0
S11318F09605F091970582A18F5F82A3809196054A
S113190090919705089541E061E082E00E94C30D43
S113191041E062E082E00E94C30D40E061E082E0C9
S11319200E94360E40E062E082E00E94360E089586
S113193041E061E082E00E94360E40E062E082E035
S11319400E94360E08950F931F93CF93DF9300D018
S113195000D0CDB7DEB7082F84E0898385E08A8381
S113196086E08B8387E08C8310E014C0402F50E026
S1131970012E02C0559547950A94E2F74170E1E0C3
S1131980F0E0EC0FFD1FE10FF11D608180E00E948B
S1131990360E1F5F143050F30F900F900F900F907E
S11319A0DF91CF911F910F91089541E062E080E0B3
S11319B00E94360E8FE39FE10197F1F700C000000B
S11319C040E062E080E00E94360E0895CF93C82F75
S11319D041E063E080E00E94360E40E061E080E098
S11319E00E94360E8C2F82958F700E94A30C0E9449
S11319F0D50C8C2F0E94A30C0E94D50CCF91089576
S1131A00CF93C82F40E063E080E00E94360E40E0B0
S1131A1061E080E00E94360E8C2F82958F700E94C8
S1131A20A30C0E94D50C8C2F0E94A30C0E94D50CF1
S1131A30CF9108952FEF83EF91E0215080409040A3
S1131A40E1F700C0000082E00E94A30C0E94D50CC4
S1131A5082E00E94A30C0E94D50C88E00E94A30C93
S1131A600E94D50C8CE00E94000D81E00E94000DC4
S1131A7008950F931F93CF938C01C0E003C00E947D
S1131A80E60CCF5FF801EC0FF11D80818111F7CFD7
S1131A90CF911F910F91089590E4699F800D1124B7
S1131AA080680E94000D08951F93CF93DF93CDB7F4
S1131AB0DEB72A970FB6F894DEBF0FBECDBF61150F
S1131AC0710581059105D1F480E30E94E60C2CC0D8
S1131AD02AE030E040E050E00E943B10E1E0F0E01A
S1131AE0EC0FFD1FE10FF11D17FDFA95605D60839A
S1131AF0622F732F842F952F1F5F01C010E0611593
S1131B0071058105910521F711500CC0E1E0F0E069
S1131B10EC0FFD1FE10FF11D17FDFA9580810E9466
S1131B20E60C1150112394F72A960FB6F894DEBFF1
S1131B300FBECDBFDF91CF911F91089541E00E9468
S1131B40360E089587B18F7787B987B1806487B9D6
S1131B5086B1887F86B986B1876086B986B1806888
S1131B6086B9089597B1907E97B997B1892B87B9B3
S1131B7086B1806486B9349BFECF86B1806186B914
S1131B8084B195B10895423008F06FC04130A1F599
S1131B90813089F028F08230C9F0833011F1089542
S1131BA02AB381E090E002C0880F991F6A95E2F79A
S1131BB0822B8ABB089527B381E090E002C0880F8E
S1131BC0991F6A95E2F7822B87BB089524B381E0BD
S1131BD090E002C0880F991F6A95E2F7822B84BBBC
S1131BE0089521B381E090E002C0880F991F6A959F
S1131BF0E2F7822B81BB0895411137C0813091F007
S1131C0028F08230D9F0833029F108952AB381E095
S1131C1090E002C0880F991F6A95E2F780958223AD
S1131C208ABB089527B381E090E002C0880F991F12
S1131C306A95E2F78095822387BB089524B381E0F7
S1131C4090E002C0880F991F6A95E2F7809582237D
S1131C5084BB089521B381E090E002C0880F991FEE
S1131C606A95E2F78095822381BB0895423008F09B
S1131C706FC04130A1F5813089F028F08230C9F07D
S1131C80833011F108952BB381E090E002C0880FF6
S1131C90991F6A95E2F7822B8BBB089528B381E0E4
S1131CA090E002C0880F991F6A95E2F7822B88BBE7
S1131CB0089525B381E090E002C0880F991F6A95CA
S1131CC0E2F7822B85BB089522B381E090E002C045
S1131CD0880F991F6A95E2F7822B82BB0895411100
S1131CE037C0813091F028F08230D9F0833029F167
S1131CF008952BB381E090E002C0880F991F6A9584
S1131D00E2F7809582238BBB089528B381E090E0AD
S1131D1002C0880F991F6A95E2F78095822388BBD9
S1131D20089525B381E090E002C0880F991F6A9559
S1131D30E2F78095822385BB089522B381E090E089
S1131D4002C0880F991F6A95E2F78095822382BBAF
S1131D500895813041F028F0823039F0833039F031
S1131D6008956ABB089567BB089564BB089561BB79
S1131D70089593B7986093BF93B7906493BF93B754
S1131D80906293BF93B79F7E93BF93B7987F93BF9F
S1131D9093B7936093BF682F70E080E090E00E9457
S1131DA0420F2AE037ED43E250E40E94CE0F0E9436
S1131DB0110F6CBF08951F920F920FB60F9211244A
S1131DC02F933F934F935F936F937F938F939F933F
S1131DD0AF93BF93EF93FF93E0919A05F0919B0526
S1131DE00995FF91EF91BF91AF919F918F917F9151
S1131DF06F915F914F913F912F910F900FBE0F9074
S1131E001F90189586E880BD87E689B98AB18860F5
S1131E108AB98AB180618AB908955F9BFECF8CB17B
S1131E2008950E94AD0F88F09F5798F0B92F992715
S1131E30B751B0F0E1F0660F771F881F991F1AF0B1
S1131E40BA95C9F714C0B13091F00E94C70FB1E040
S1131E5008950C94C70F672F782F8827B85F39F03F
S1131E60B93FCCF3869577956795B395D9F73EF44A
S1131E7090958095709561957F4F8F4F9F4F0895F2
S1131E80E89409C097FB3EF4909580957095619510
S1131E907F4F8F4F9F4F9923A9F0F92F96E9BB27C6
S1131EA09395F695879577956795B795F111F8CF42
S1131EB0FAF4BB0F11F460FF1BC06F5F7F4F8F4FAD
S1131EC09F4F16C0882311F096E911C0772321F0A3
S1131ED09EE8872F762F05C0662371F096E8862F3B
S1131EE070E060E02AF09A95660F771F881FDAF792
S1131EF0880F9695879597F9089597F99F6780E8D5
S1131F0070E060E008959FEF80EC089500240A9447
S1131F101616170618060906089500240A941216C0
S1131F201306140605060895092E0394000C11F4F3
S1131F30882352F0BB0F40F4BF2B11F460FF04C0A0
S1131F406F5F7F4F8F4F9F4F089557FD9058440FF9
S1131F50551F59F05F3F71F04795880F97FB991F04
S1131F6061F09F3F79F087950895121613061406C1
S1131F70551FF2CF4695F1DF08C01616170618064E
S1131F80991FF1CF86957105610508940895E89429
S1131F90BB2766277727CB0197F908950E94E10FA5
S1131FA00C94940F0E94860F38F00E948D0F20F03D
S1131FB0952311F00C947D0F0C94830F11240C9431
S1131FC0C80F0E94A50F70F3959FC1F3950F50E0C1
S1131FD0551F629FF001729FBB27F00DB11D639FD7
S1131FE0AA27F00DB11DAA1F649F6627B00DA11D7D
S1131FF0661F829F2227B00DA11D621F739FB00D23
S1132000A11D621F839FA00D611D221F749F332792
S1132010A00D611D231F849F600D211D822F762F2B
S11320206A2F11249F5750409AF0F1F088234AF008
S1132030EE0FFF1FBB1F661F771F881F9150504074
S1132040A9F79E3F510580F00C947D0F0C94C80FA6
S11320505F3FE4F3983ED4F3869577956795B795FB
S1132060F795E7959F5FC1F7FE2B880F911D969515
S1132070879597F90895A1E21A2EAA1BBB1BFD01AF
S11320800DC0AA1FBB1FEE1FFF1FA217B307E40753
S1132090F50720F0A21BB30BE40BF50B661F771FAB
S11320A0881F991F1A9469F760957095809590958B
S11320B09B01AC01BD01CF010895FB01DC0102C00D
S11320C001900D9241505040D8F70895F894FFCFF5
S11320D0E703456E74657220596F75722050617301
S11320E0730057656C636F6D65204261636B2121DA
S11320F00054656D70203D2000430057726F6E6779
S1132100207061737321210077656C636F6D6500C6
S113211057726F6E67205061737321004C434420E3
S1132120496E697469616C697A6174696F6E2000C3
S11321305061737320526563656976656420616ECE
S11321406420636F6D7061726564207769746820C0
S113215074686520747275652070617373004D65D1
S113216061737572652074656D7000446973706C79
S113217061792074656D702076616C756520004D01
S11321806F746F7220636F6E74726F6C2062617310
S11321906564206F6E2074656D702076616C756562
S10921A00049444C450017
S9030000FC
